:080000006E0C0400000000007A
:0400280012080000BA
:04004C002E0600007C
:100200003220EF00C3102000008041001040BA00EF
:100210000160EF0000000600720000003220EF00D5
:10022000A3112000008041001040BA000160EF00DF
:100230000000060062610000736500005F7300004B
:1002400070650000656400003D2500007520000019
:10025000766100006C750000653D00000000000044
:100260003220EF00C3132000008041001040BA008C
:100270000160EF0000000600646500006C61000092
:10028000795F0000746900006D6500003D25000085
:1002900075200000766100006C7500006528000084
:1002A0006D730000293D0000000000003220EF00C7
:1002B00023162000008041001040BA000160EF00CA
:1002C000000006004B5000003D2500007520000096
:1002D000766100006C750000653D000000000000C4
:1002E0003220EF00C3172000008041001040BA0008
:1002F0000160EF00000006004B4900003D250000B2
:1003000075200000766100006C7500006528000013
:10031000783000002E300000312900003D00000040
:100320003220EF00C3192000008041001040BA00C5
:100330000160EF00000006004B4400003D25000076
:1003400075200000766100006C750000653D0000BE
:1003500028780000302E0000312900000000000045
:100360003220EF00C31B2000008041001040BA0083
:100370000160EF0000000600537900007374000074
:10038000656D0000206500006E610000626C000079
:10039000656400000A0D0000000000000E02AE00BF
:1003A000FEFF37000E02F8000008F90090108000F0
:1003B0000E22A90000000600851F78005445800029
:1003C0006020E1000B003D005445800053A22F0047
:1003D0000418E1000200340054A22F0054458800A4
:1003E0008C21EF000400200053458000830252005E
:1003F000950C8800544580006020E100090035001C
:1004000054458000B35D20000418E10002003D0067
:10041000B45D200054458800AA08F8008C01F9005A
:100420009221EF00644580006020E1000B003D0058
:100430006445800053A22F000418E100020034003C
:1004400054A22F006445880004002000634580000A
:1004500083025200050C88008621EF00644580006D
:100460006020E1000900350064458000B35D200094
:100470000418E10002003D00B45D200064458800DE
:100480008021EF00AC08F8008601F900CF02780067
:1004900000000600851F7800C50020000300090049
:1004A000B51F7800800378008404780004F0A10070
:1004B0000400E00006003A0009F0A700020037003F
:1004C000050020000F003700050020000D00370058
:1004D000E64252000A0039000003200009F0A6009D
:1004E000000220000F22AF00FEFF370080108800BE
:1004F0008502E900FBFF3B005500200001003700AA
:10050000840278006400200005E0A00009F0A70044
:1005100005F0A00008712200110009008883D800AE
:10052000C40202000000000081037800883E200021
:10053000110009008883D800C402020000000000F6
:100540008103780048062000110009008883D80044
:10055000C40202000000000081037800A80020000F
:10056000110009008883D800C402020000000000C6
:100570000003200000C040000F22AF00FEFF370044
:100580008010880019003700060320000000E000FA
:100590000E003A0005E0A6000D0037000402E90055
:1005A0000524E100020032004200AF000000060016
:1005B0000000E00005003A0005E0A6000400370056
:1005C00005F0A600060220000100370005E0A100AA
:1005D00000404300811F78000F22AF00FEFF37006C
:1005E00080108800CF007800000006002501200060
:1005F00003000900CF127800CF0278000000060047
:10060000851F7800C500200003000900B51F780091
:100610000202B80003F0A600020037000383B9000D
:10062000010037000303B8004200A900850243001F
:1006300060844B0001F0A60002003700028BB90075
:1006400001003700020BB80085024B0008844B0004
:100650000980B000038BB90008044B0087834C006D
:100660008701780008017800850078000400780090
:100670002501200003000900CF127800CF02780086
:1006800000000600851F7800861F7800871F78000D
:10069000C228EF00BE28EF00A40020000446880016
:1006A000BA28EF00BC28EF00B808E20003003A00C7
:1006B0000000200001002000DF003700104680000D
:1006C000C228EC008002780005007800B808B40069
:1006D0002446800000429000244688002446800082
:1006E000D4C2B2000B003A0014002000F445880088
:1006F00010468000C228EC008002780005007800D7
:10070000B808B400244680000042900024468800C7
:100710000B00370024468000B4C2B20008003A0043
:1007200010468000C228EC008002780005007800A6
:10073000B808B40024468000004290002446880097
:100740002446800003032000041CE100AA003E00B0
:100750002446800093032000041CE100A600390019
:100760002446800004C3B20015003A001046800001
:10077000B808B4001042780084C7B2000500320007
:1007800010468000B808B4001042780084C5B2005A
:100790000B003A000401200004468800C228EC0047
:1007A00010468000C228EC00800278000500780026
:1007B000B808B40024468000004290002446880017
:1007C000044680006A20E10024003A0024468000AC
:1007D00003032000041CE1001F003E0024468000AB
:1007E00093032000041CE1001B003900A00020003E
:1007F00001002000D2458000E34580000003020094
:100800000000000080027800010378002446800088
:100810000443B1000440780000E0B7000080FB0012
:1008200005004000D04588000400200006004A0072
:10083000E045880010468000C228EC008002780065
:1008400005007800B808B4002446800000429000FB
:1008500024468800DDFF370067003700044680002B
:100860007020E10064003A00244680001306200056
:10087000041CE10007003E0024468000A30720007E
:10088000041CE10003003900C4C8BF00F04DB200F1
:1008900001003700C4C8BF00C4E8B7002446800088
:1008A00003032000041CE10005003E0024468000F4
:1008B00093032000041CE100010039000800370008
:1008C0002446800013042000041CE1004A003E007E
:1008D0002446800063042000041CE1004600390027
:1008E0002446800003032000041CE10018003E00A1
:1008F0002446800093032000041CE100140039000A
:1009000044002000D5458000E64580000402E80050
:100910000402E900030032008502D0000683D20001
:10092000FBFF3700244680000443B10004407800F8
:1009300000E0B7000080FB0005004000D0458800C3
:100940000400200006004A00E0458800140037003B
:1009500044002000D5458000E64580000402E80000
:100960000402E900030032008502D0000683D200B1
:10097000FBFF3700244680001444B1000440780097
:1009800000E0B7006A4040000080FB000500400026
:10099000D04588000400200006004A00E045880099
:1009A00010468000C228EC00800278000500780024
:1009B000B808B40024468000004290002446880015
:1009C0002446800013062000041CE10007003E00BE
:1009D00024468000A3072000041CE1000300390026
:1009E000C4C8BF00F04DB20001003700C4C8BF004A
:1009F000C4E8B700A9FF3700044680006A20E10080
:100A00000B003A00F44580006120E10008003A0044
:100A100004002000D345800003005200D045880028
:100A200004002000E345800003005A00E0458800F0
:100A3000D0458000E1458000CF0378004F03780067
:100A4000CF02780000000600851F7800861F78001E
:100A5000B028EF00C48420008345800084824100D8
:100A6000467F8000CE01020000000000467F880023
:100A7000804A7800B028EC0084458000E1025200F2
:100A8000C484200004804200104278006D24E100FC
:100A9000F0FF3A00C4842000C445880042030200ED
:100AA000000000003042880075458000344280001C
:100AB00084029800D0C0B3000F22AF00FEFF3700C1
:100AC00010E2B7001162EF004F037800CF02780008
:100AD00000000600000178008101780001407800E4
:100AE0000080FD0000F0A0008180D2000180FD00A8
:100AF0008180FB00E40820008140520006003200A3
:100B00000000E000040032004200A9000080D30091
:100B10008100E900FAFF3A0003F0A6000200370066
:100B20000000EA000000370000000600851F780082
:100B3000861F7800E10820000600A10000F0A60052
:100B4000030037000600A0000000EA0000003700A4
:100B50000000E0001400320000F0A700040037009D
:100B60004200A9000080D2008100E900FAFF3700AE
:100B70000180FD004200A9008180D30000F0A100A7
:100B80000080FD00814068000040B2000600A70020
:100B900001F0A00007003700014078000170A000BC
:100BA0000140B200030037000000EB008000EB00C2
:100BB000000037004F037800CF02780000000600E5
:100BC000851F7800861F7800AA28EF00C4842000C3
:100BD0005345800084824100467F8000CE010200A0
:100BE00000000000467F8800804A7800AA28EC00B8
:100BF00054458000E1025200C48420000480420079
:100C0000104278006D24E100F0FF3A00C484200017
:100C1000C445880042030200000000003042880002
:100C2000454580003042800096050200000000002B
:100C300004002000B41A7800B41A7800D0C0B300C1
:100C40000F22AF00FEFF370010E2B7001162EF0085
:100C50004F037800CF027800000006004200F80041
:100C60003600F800801F7800200020000C000900EA
:100C7000B01F78001300200002002000618A2000CD
:100C800002007800831F78000001020000000000CD
:100C9000CF017800805878000201E8008301E90064
:100CA0004220AE00F6FF3700CE0102000000000037
:100CB000A6E8B7003445800024C7B20007003A0018
:100CC0004208E200020032000040EB000100370061
:100CD00010C0B30042E8B7004368EF00344580001D
:100CE00034C6B200BB003A00AA28EF00AC28EF00DF
:100CF000DC0102000000000001002000010078007B
:100D00000E010200000000008100E800811F780051
:100D10000F22AF00FEFF370080108800CF00780060
:100D2000A00020000008E600F4FF3700004180002A
:100D3000040020004A02020000000000D100200050
:100D4000010078000E010200000000008100E800B0
:100D5000811F78000F22AF00FEFF3700801088004F
:100D6000CF007800300120000008E600F4FF3700D3
:100D70000482200074458800240502000000000061
:100D80000100200001007800300102000000000096
:100D90008100E800811F78000F22AF00FEFF3700BE
:100DA00080108800CF007800A00020000008E60036
:100DB000F4FF370040428000040020004A02020095
:100DC00000000000D1002000010078003001020086
:100DD000000000008100E800811F78000F22AF00B2
:100DE000FEFF370080108800CF00780070012000DF
:100DF0000008E600F4FF3700848420007445880072
:100E00002405020000000000D0418000E141800084
:100E10006A05020000000000800278000F22AF0087
:100E2000FEFF3700B4042000841088000F22AF00BA
:100E3000FEFF370004052000841088000F22AF0059
:100E4000FEFF3700D40320008410880005007800DE
:100E5000040020004A0202000000000051002000AF
:100E60000100780056010200000000008100E80047
:100E7000811F78000F22AF00FEFF3700801088002E
:100E8000CF007800B00020000008E600F4FF370033
:100E9000A483200044458800E00502000000000013
:100EA000F0418000014280006A050200000000005D
:100EB000800278000F22AF00FEFF3700B40420004C
:100EC000841088000F22AF00FEFF3700940420003A
:100ED000841088000F22AF00FEFF3700D4032000EB
:100EE0008410880005007800040020004A020200F7
:100EF0000000000051002000010078007001020095
:100F0000000000008100E800811F78000F22AF0080
:100F1000FEFF370080108800CF00780020012000FD
:100F20000008E600F4FF3700E48320004445880011
:100F3000E005020000000000B0418000C1418000D7
:100F40006A05020000000000800278000F22AF0056
:100F5000FEFF3700B4042000841088000F22AF0089
:100F6000FEFF370044042000841088000F22AF00E9
:100F7000FEFF3700D40320008410880005007800AD
:100F8000040020004A02020000000000510020007E
:100F90000100780090010200000000008100E800DC
:100FA000811F78000F22AF00FEFF370080108800FD
:100FB000CF007800100120000008E600F4FF3700A1
:100FC0006483200044458800E00502000000000022
:100FD0004228EF00D842A900DC42AA008520A900DF
:100FE000A00120000C0009004F1078004F0078008D
:100FF0003600F9004200F900004006000000E00061
:101000004220AF0006003700213309000000000035
:10101000FF3F0900000000000000E900F7FF370073
:10102000000006004200F8003600F800801F78003B
:10103000200020000C000900B01F78004208E200E8
:10104000020032000040EB000100370010C0B30086
:1010500042E8B7004368EF00401F2000FE0702008F
:10106000000000008400A900A00120000C0009007D
:101070004F1078004F0078003600F9004200F90068
:1010800000400600E4002000240C880064002000DA
:10109000540C8800E4002000840C8800E400200048
:1010A000B40C88001021EF00B45D200064088800B3
:1010B00004002A00840888001221EF00B45D20009B
:1010C0007408880004002A00940888008021EF003A
:1010D0008621EF008C21EF009221EF000000060036
:1010E000851F7800244480006402420004007800D8
:1010F00080027800800AEB00C922AF00950AE80060
:1011000024448000660242000400780080027800D7
:10111000800AEB00C8E2AF00950AE8002444800092
:10112000680242000400780080027800800AEB0028
:10113000C8A2AF00950AE800244480006A02420079
:101140000400780080027800800AEB00C862AF00DB
:10115000950AE800244480006C02420004007800F4
:1011600080027800800AEB00C822AF00950AE800F0
:10117000244480006E02420004007800800278005F
:10118000800AEB00C802AF00950AE8002444800002
:10119000700242000400780080027800800AEB00B0
:1011A000C842AF00950AE800244480007202420061
:1011B0000400780080027800800AEB00C882AF004B
:1011C000950AE8002444800074024200040078007C
:1011D00080027800800AEB00C8C2AF00950AE800E0
:1011E00024448000760242000400780080027800E7
:1011F000800AEB00C902AF00950AE8002444800091
:10120000780242000400780080027800800AEB0037
:10121000C942AF00950AE800CF027800000006003E
:10122000851F78008C28EF008E28EF009028EF00B3
:101230009228EF008608F8008C08F90060448000CE
:10124000444480000020E100120035006444800026
:101250006220B8002444800004004000900278001E
:101260000500E00009003A00644480006102420089
:1012700084027800050278006220B8009028B4004B
:101280007444800061024200744488008C28EC00A1
:10129000EAFF37008E08E200070032005544800064
:1012A0008444800073448000110009000302D800C8
:1012B000800A78000300370055448000F4FF2F00B7
:1012C00084029800CF0278000000060024448000C9
:1012D0007020E10007003D00244480006020E10010
:1012E00004003500D862A900DC62A900D882A900F8
:1012F000DC82A800244480007020E1000400340057
:10130000D862A900DC62A800D882A900DC82A9000A
:10131000244480007020E10004003A00D862A90053
:10132000DC62A900D882A900DC82A90000000600C6
:10133000851F7800C500200003000900B51F780054
:101340008004EB00080028004300AF0083016C001C
:10135000010578008A85690001037800830378001D
:10136000030678004220A9004200A9000683D200AB
:101370000680FD00F60FB2000600E000A10032007A
:101380004220A9004200A9008783D2000780FD0007
:10139000F70FB2000700E0009F0032004220A900D2
:1013A0004200A9000638E1009C003200A30033008F
:1013B0000900A1000910A00006845300070378006B
:1013C000F10FB2000170A000F30FB2000370A00093
:1013D000870220000838E100110033004220A900F4
:1013E0004200A9008180D3000080D3000804E900F6
:1013F000FAFF3A000D003700870220000838E100AC
:10140000090033004220A9004200A9008381D300D3
:101410000281D3000804E900FAFF3A000F00370008
:101420000200780083007800430037000BF0A6002C
:10143000110037000940A7008C0578000000EA0081
:101440000200320081C0EA00010037008100EA009A
:101450000940A7002B003700070037000BF0A6005B
:10146000050037000201EA000200320083C1EA00F1
:10147000010037008301EA00F50FB2004220A90005
:101480004200A9000200400083C048004200AF00B3
:101490000930A0000900A700090037000910A700C3
:1014A000010037000B0037000BF0A70015003700D4
:1014B0000930A700290037000960A0001E0037008E
:1014C0000BF0A7000F0037000930A70023003700FA
:1014D000190037000920A1000BF0A7000400370015
:1014E0008A0578000930A7001C0037003600370055
:1014F0000940A00001C8B2000170A700CDFF37006D
:101500008A057800F10FB200810370000A003200F2
:101510000170A700080037004220A9004200A9007E
:101520000080D2008180D2000603E9004220AF0093
:1015300031003700F6FF37000900A7008A05780060
:101540000910A7008C0578000950A6001A00370082
:101550000AF0A7000080A0001B0037004200A8008E
:1015600081C0D3000080D3004200AF000950A0002A
:101570000603E800200032000950A60008003700EA
:101580000000E80006003A008140E80004003A004C
:1015900081C0D3000080D3000603E80016003200AB
:1015A0000900A7008A0578000910A7008C057800BB
:1015B0004220AF00100037000960A7008A057800BC
:1015C0000970A7008C05780001017000230032002B
:1015D0000170A1000680FD004220A9004200A90080
:1015E0000683D30081006B0001F0A0000BF0A60081
:1015F00001F0A100190037000000200001002000C8
:10160000160037000AF0A70083016C000200780082
:10161000830078001100370010003700F30FB2008C
:101620000370A000F10FB2000170A0000BF0A70042
:101630000370A1000920A00088FF370007045300B1
:10164000F10FB2000170A000F30FB2000370A00010
:101650000910A1000900A00067FF37002501200044
:1016600003000900CF127800CF02780000000600C6
:10167000851F7800861F7800871F78000382680026
:1016800004F0A600060037004200A9004220A9008D
:1016900001F0A600260037004200A8002400370011
:1016A000010278008002780003037800820378004A
:1016B0008180D2000180FD008381D2000380FD0083
:1016C00081C051000500320004F0A6001800370068
:1016D0001000200042E0B60015003700844078007A
:1016E000864178000170A1000370A10081C0510003
:1016F0000500320004F0A6000D00370010002000A5
:1017000042E0B6000A003700858053000500320031
:1017100004F0A600060037001000200042E0B600EA
:10172000030037004200A900010037000000370025
:10173000CF0378004F037800CF0278000000060046
:10174000851F7800C500200004000900B51F78003F
:101750000002780081027800830378000203780099
:101760004200A9004220A9008180D2000180FD0032
:10177000F10FB2000100E000480032004200A90071
:101780004220A9008381D2000380FD00F30FB20044
:101790000300E000410032000080FB0001C0410076
:1017A00004003100F007B1003C0032003B0039007A
:1017B000020037001048B0003800310007856A0089
:1017C0004200A9004220A900F50FB2000570A00058
:1017D0004200A900F70FB2000770A0000621B80070
:1017E000062CB80083014C0089007800043CB80046
:1017F00083014C0081804C00072CB80081004C0014
:101800000000E8000100E0004220AF0001003700C6
:10181000030037000300E0004220AF00050037005E
:1018200001F0A700030037008381D2008180D2003D
:101830000000E900010178004200A9000370A60041
:101840000900370007F02F00878161000310B00006
:10185000600149000200E00003003A000300E000DC
:1018600001003A000000E8000080FD004200A900ED
:101870004220A9008080D3000AF0A70001F0A00058
:1018800002F0A1000280FD00814069000380FD009C
:1018900003417800020078000300370000002000B8
:1018A000010020000000370045012000040009006D
:1018B000CF127800CF027800000006000000E000A0
:1018C0004220AF00040037001600090000000000AD
:1018D0000000E900F9FF37000000060081E0A800E1
:1018E0000400280064108800044020007410880060
:1018F000F4002000A4108800843E200004418800E9
:101900003228EF003428EF0004002800B44188009A
:1019100094402400C44188003A28EF00042A24009F
:10192000E44188003E28EF000400240004428800BF
:101930004228EF004428EF004628EF0004E224008C
:10194000444288004A28EF00A8A2EF000FF82000C8
:10195000F0FF200020A0B700000000000028EF00EA
:101960007E28EF000100200001007800B001020095
:10197000000000008100E800811F78000F22AF0006
:10198000FEFF370080108800CF007800F0002000B4
:101990000008E600F4FF3700B45D2000244488000E
:1019A00042080200000000008D20A8004200F8005C
:1019B00042E0EF00AA28EF00AC28EF00DC010200B3
:1019C000000000004200F900E0C2AF00270037002D
:1019D0004208E20025003A00D842A900DC42AA00F1
:1019E0004200F80042E0EF00F0002000FE07020095
:1019F000000000004200F9002480200024448800F8
:101A00007008020000000000240020003444880018
:101A1000C40020004444880024802000244488001E
:101A20008482200054448800100902000000000055
:101A30001404200043418000848241000F22AF0043
:101A4000FEFF3700851088000F22AF00FEFF370031
:101A5000A4002000841088000F22AF00FEFF370092
:101A6000D400200084108800D7FF3700D842A90096
:101A7000DC42A8004200F80042E0EF00007D2000B8
:101A8000FE070200000000004200F9004208E200E8
:101A900002003A00F40F2000144288004208E200DD
:101AA000C200320024802000244488007008020014
:101AB000000000002400200034448800C4002000FE
:101AC000444488002480200024448800848220002C
:101AD00054448800100902000000000044418000C6
:101AE000F3FF2F000418E10002003A002608F80076
:101AF0002808F9002808F8008408F900660902009F
:101B0000000000002808F8002608F9000401200061
:101B1000434180000300520060418800644180001E
:101B200053418000030052007041880064418000EE
:101B30006420E10004003C0064418000C3FF2F00EA
:101B40000418E100100034004200F80042E0EF0009
:101B50006041800096050200000000004200F9008C
:101B60004300A900000178008101780090418000C5
:101B7000A141800098090200000000009041880007
:101B8000A1418800020037003228EF003428EF001E
:101B900000002000812C240092418000A34180009D
:101BA000380B020000000000030039003228EF006B
:101BB000842C2400A441880090418000A141800031
:101BC0000200200003F82B00A00B02000000000020
:101BD000800278000103780000002000812C24009E
:101BE0000501780086017800380B02000000000033
:101BF000030039003228EF00842C2C00A441880017
:101C0000654180004200F80042E0EF0005007800E6
:101C100096050200000000004200F900D241800059
:101C2000E3418000A00B0200000000008002780069
:101C300001037800774180004200F80042E0EF00A5
:101C40000700780096050200000000004200F9003D
:101C5000B2418000C3418000A00B020000000000E0
:101C60004300A90000017800810178000500780098
:101C700086007800980902000000000080027800C9
:101C80000103780090418000A1418000F241800072
:101C900003428000A00B0200000000004300A900E6
:101CA0000001780081017800050078008600780046
:101CB00098090200000000004200F80042E0EF0036
:101CC0006A050200000000004200F900804188001F
:101CD0002C08F8002A08F900444180006D20E1003A
:101CE0000D003400444180007320E1000A003D00F3
:101CF000544280007820E10007003D004A28EC00B3
:101D0000544280006320E100020034008457200028
:101D100004418800030037004A28EF00843E200079
:101D20000441880004418000834180000300520088
:101D300010418800004180003008B4002041880034
:101D40004200F80042E0EF002208F800AA08F9007B
:101D50002408F800AC08F900DC01020000000000D3
:101D60004200F900404280005E0C020000000000CA
:101D70001404200043418000848241000F22AF0000
:101D8000FEFF3700851088000F22AF00FEFF3700EE
:101D9000A4002000841088000F22AF00FEFF37004F
:101DA000D4002000841088003CFF3700FFFE37007D
:041DB0000040FE00F1
:0200000401F009
:1000000003C700003F000000338700000F310000ED
:0C0010000F3300000700000003C00000D8
:00000001FF
;DSPIC30F5015
;CRC=CBAF  CREATED="19-Nov-15 20:48"
