:080000006C0C0400000000007C
:040028003809000093
:04004C00F0060000BA
:100200003220EF00C3102000008041001040BA00EF
:100210000160EF0000000600720000003220EF00D5
:10022000A3112000008041001040BA000160EF00DF
:100230000000060062610000736500005F7300004B
:1002400070650000656400003D2500007520000019
:10025000766100006C750000653D00000000000044
:100260003220EF00C3132000008041001040BA008C
:100270000160EF0000000600646500006C61000092
:10028000795F0000746900006D6500003D25000085
:1002900075200000766100006C7500006528000084
:1002A0006D730000293D0000000000003220EF00C7
:1002B00023162000008041001040BA000160EF00CA
:1002C000000006004B5000003D2500007520000096
:1002D000766100006C750000653D000000000000C4
:1002E0003220EF00C3172000008041001040BA0008
:1002F0000160EF00000006004B4900003D250000B2
:1003000075200000766100006C7500006528000013
:10031000783000002E300000312900003D00000040
:100320003220EF00C3192000008041001040BA00C5
:100330000160EF00000006004B4400003D25000076
:1003400075200000766100006C750000653D0000BE
:1003500028780000302E0000312900000000000045
:100360003220EF00C31B2000008041001040BA0083
:100370000160EF0000000600745F00007370000071
:1003800065650000643D00002575000020760000D2
:10039000616C000075650000286D00007329000085
:1003A0003D0000000E02AE00FEFF37000E02F80016
:1003B0000008F900901080000E22A900000006003D
:1003C000851F7800444580006020E1000B003D005F
:1003D0004445800053A22F000418E10002003400BD
:1003E00054A22F00444588008C21EF000400200017
:1003F0004345800083025200950C880044458000EC
:100400006020E1000900350044458000B35D200014
:100410000418E10002003D00B45D2000444588005E
:10042000A808F8008C01F9009221EF0054458000E3
:100430006020E1000B003D005445800053A22F00D6
:100440000418E1000200340054A22F005445880033
:10045000040020005345800083025200050C8800F0
:100460008621EF00544580006020E100090035003E
:1004700054458000B35D20000418E10002003D00F7
:10048000B45D2000544588008021EF00AA08F800E0
:100490008601F900CF02780000000600851F780071
:1004A000C500200003000900B51F78008003780014
:1004B0008404780004F0A1000400E00006003A0083
:1004C00009F0A70002003700050020000F003700E8
:1004D000050020000D003700E64252000A003900F6
:1004E0000003200009F0A600000220000F22AF0048
:1004F000FEFF3700801088008502E900FBFF3B000B
:1005000055002000010037008402780064002000BC
:1005100005E0A00009F0A70005F0A0000871220086
:10052000110009008883D800C80202000000000002
:1005300081037800883E2000110009008883D800DC
:10054000C802020000000000810378004806200075
:10055000110009008883D800C802020000000000D2
:1005600081037800A8002000110009008883D800CA
:10057000C8020200000000000003200000C040008C
:100580000F22AF00FEFF37008010880019003700EF
:10059000060320000000E0000E003A0005E0A6007F
:1005A0000D0037000402E9000524E10002003200DA
:1005B0004200AF00000006000000E00005003A0025
:1005C00005E0A6000400370005F0A60006022000A2
:1005D0000100370005E0A10000404300811F7800C2
:1005E0000F22AF00FEFF370080108800CF00780098
:1005F000000006002501200003000900CF1278004A
:10060000CF02780000000600851F7800C50020009A
:1006100003000900B51F78000202B80003F0A6002D
:10062000020037000383B900010037000303B8005C
:100630004200A9008502430060844B0001F0A6003F
:1006400002003700028BB90001003700020BB8002E
:1006500085024B0008844B000980B000038BB90071
:1006600008044B0087834C0087017800080178005C
:1006700085007800040078002501200003000900AF
:10068000CF127800CF02780000000600851F7800A6
:10069000861F7800871F7800BE28EF00BA28EF0079
:1006A000A4002000E4458800B628EF00B828EF0039
:1006B000B408E20003003A0000002000010020001E
:1006C000DF003700F0458000BE28EC008002780093
:1006D00005007800B408B400044680000042900091
:1006E0000446880004468000D4C2B2000B003A00E1
:1006F00014002000D4458800F0458000BE28EC009E
:100700008002780005007800B408B4000446800038
:1007100000429000044688000B0037000446800029
:10072000B4C2B20008003A00F0458000BE28EC00D8
:100730008002780005007800B408B4000446800008
:100740000042900004468800044680000303200015
:10075000041CE100AA003E00044680009303200030
:10076000041CE100A60039000446800004C3B20066
:1007700015003A00F0458000B408B400104278003B
:1007800084C7B20005003200F0458000B408B40010
:100790001042780084C5B2000B003A00040120002A
:1007A000E4458800BE28EC00F0458000BE28EC003F
:1007B0008002780005007800B408B4000446800088
:1007C0000042900004468800E44580006A20E10071
:1007D00024003A000446800003032000041CE100CA
:1007E0001F003E000446800093032000041CE1002B
:1007F0001B003900A000200001002000B24580004D
:10080000C34580000403020000000000800278005D
:1008100001037800044680000443B10004407800DE
:1008200000E0B7000080FB0005004000B0458800F4
:100830000400200006004A00C0458800F045800002
:10084000BE28EC008002780005007800B408B400EF
:10085000044680000042900004468800DDFF370017
:1008600067003700E44580007020E10064003A0032
:100870000446800013062000041CE10007003E002F
:1008800004468000A3072000041CE1000300390097
:10089000C0C8BF00F04DB20001003700C0C8BF00A3
:1008A000C0E8B7000446800003032000041CE100F8
:1008B00005003E000446800093032000041CE10074
:1008C00001003900080037000446800013042000AE
:1008D000041CE1004A003E0004468000630420003E
:1008E000041CE10046003900044680000303200098
:1008F000041CE10018003E00044680009303200021
:10090000041CE1001400390044002000B5458000BB
:10091000C64580000402E8000402E900030032003A
:100920008502D0000683D200FBFF3700044680001A
:100930000443B1000440780000E0B7000080FB00F1
:1009400005004000B04588000400200006004A0071
:10095000C04588001400370044002000B5458000E1
:10096000C64580000402E8000402E90003003200EA
:100970008502D0000683D200FBFF370004468000CA
:100980001444B1000440780000E0B7006A40400021
:100990000080FB0005004000B045880004002000F6
:1009A00006004A00C0458800F0458000BE28EC00E3
:1009B0008002780005007800B408B4000446800086
:1009C0000042900004468800044680001306200080
:1009D000041CE10007003E0004468000A30720003D
:1009E000041CE10003003900C0C8BF00F04DB20094
:1009F00001003700C0C8BF00C0E8B700A9FF37003A
:100A0000E44580006A20E1000B003A00D4458000F4
:100A10006120E10008003A0004002000B345800096
:100A200003005200B045880004002000C345800048
:100A300003005A00C0458800B0458000C1458000D1
:100A4000CF0378004F037800CF0278000000060043
:100A5000851F7800861F7800A828EF00C484200036
:100A60004345800084824100467F8000D20102001D
:100A700000000000467F8800804A7800A828EC002B
:100A800044458000E1025200C484200004804200FA
:100A9000104278006D24E100F0FF3A00C484200089
:100AA000A445880046030200000000003042880090
:100AB000354580003442800084029800D0C0B300E5
:100AC0000F22AF00FEFF370010E2B7001162EF0007
:100AD0004F037800CF027800000006000001780084
:100AE00081017800014078000080FD0000F0A00046
:100AF0008180D2000180FD008180FB00E40820009D
:100B000081405200060032000000E0000400320084
:100B10004200A9000080D3008100E900FAFF3A00FA
:100B200003F0A600020037000000EA0000003700D2
:100B300000000600851F7800861F7800E10820006D
:100B40000600A10000F0A600030037000600A00088
:100B50000000EA00000037000000E000140032004E
:100B600000F0A700040037004200A9000080D20076
:100B70008100E900FAFF37000180FD004200A90072
:100B80008180D30000F0A1000080FD00814068005A
:100B90000040B2000600A70001F0A00007003700E7
:100BA000014078000170A0000140B200030037004E
:100BB0000000EB008000EB00000037004F037800DE
:100BC000CF02780000000600851F7800861F78009D
:100BD000A628EF00C48420003345800084824100B1
:100BE000467F8000D201020000000000467F88009E
:100BF000804A7800A628EC0034458000E1025200CB
:100C0000C484200004804200104278006D24E1007A
:100C1000F0FF3A00C4842000A44588004603020087
:100C200000000000304288002545800030428000EE
:100C30009A0502000000000004002000B41A7800A9
:100C4000B41A7800D0C0B3000F22AF00FEFF370007
:100C500010E2B7001162EF004F037800CF02780076
:100C600000000600851F7800C50020000400090070
:100C7000B51F7800000278008102780083037800B5
:100C8000020378004200A9004220A9008180D2001E
:100C90000180FD00F10FB2000100E00048003200C9
:100CA0004200A9004220A9008381D2000380FD00F8
:100CB000F30FB2000300E000410032000080FB00AF
:100CC00001C0410004003100F007B1003C003200D7
:100CD0003B003900020037001048B00038003100F6
:100CE00007856A004200A9004220A900F50FB20062
:100CF0000570A0004200A900F70FB2000770A00025
:100D00000621B800062CB80083014C008900780049
:100D1000043CB80083014C0081804C00072CB800D3
:100D200081004C000000E8000100E0004220AF001C
:100D300001003700030037000300E0004220AF004D
:100D40000500370001F0A700030037008381D200BF
:100D50008180D2000000E900010178004200A90072
:100D60000370A6000900370007F02F00878161009B
:100D70000310B000600149000200E00003003A00E7
:100D80000300E00001003A000000E8000080FD00E0
:100D90004200A9004220A9008080D3000AF0A700E9
:100DA00001F0A00002F0A1000280FD008140690076
:100DB0000380FD0003417800020078000300370043
:100DC0000000200001002000000037004501200045
:100DD00004000900CF127800CF027800000006005E
:100DE0004200F8003600F800801F78002000200044
:100DF0000C000900B01F7800130020000200200042
:100E0000218A200002007800831F78000001020080
:100E100000000000CF017800805878000201E8004F
:100E20008301E9004220AE00F6FF3700D201020044
:100E300000000000A2E8B7001445800024C7B200FB
:100E400007003A004208E200020032000040EB00D6
:100E50000100370010C0B30042E8B7004368EF005C
:100E60001445800034C6B200ED003A00A828EF0017
:100E7000AA28EF00E00102000000000001002000AD
:100E8000010078000E010200000000008100E8006F
:100E9000811F78000F22AF00FEFF3700801088000E
:100EA000CF007800A00020000008E600F4FF370023
:100EB00000418000040020004E02020000000000FB
:100EC000D1002000010078000E01020000000000A7
:100ED0008100E800811F78000F22AF00FEFF37007D
:100EE00080108800CF007800300120000008E60064
:100EF000F4FF3700048220003445880028050200F2
:100F00000000000001002000010078003001020014
:100F1000000000008100E800811F78000F22AF0070
:100F2000FEFF370080108800CF007800A00020006E
:100F30000008E600F4FF3700404280000400200073
:100F40004E02020000000000D100200001007800E5
:100F500030010200000000008100E800811F7800DD
:100F60000F22AF00FEFF370080108800CF0078000E
:100F7000700120000008E600F4FF370084842000A0
:100F8000344588002805020000000000D0418000A0
:100F9000E14180006E050200000000008002780040
:100FA0000F22AF00FEFF3700B40420008410880039
:100FB0000F22AF00FEFF37000405200084108800D8
:100FC0000F22AF00FEFF3700D403200084108800FA
:100FD00005007800040020004E020200000000001E
:100FE00051002000010078005601020000000000BE
:100FF0008100E800811F78000F22AF00FEFF37005C
:1010000080108800CF007800B00020000008E600C3
:10101000F4FF3700A483200024458800E405020083
:1010200000000000F0418000014280006E050200D7
:1010300000000000800278000F22AF00FEFF3700A2
:10104000B4042000841088000F22AF00FEFF370098
:1010500094042000841088000F22AF00FEFF3700A8
:10106000D4032000841088000500780004002000CC
:101070004E02020000000000510020000100780034
:1010800070010200000000008100E800811F78006C
:101090000F22AF00FEFF370080108800CF007800DD
:1010A000200120000008E600F4FF3700E483200060
:1010B00024458800E405020000000000F0418000A3
:1010C00001428000A2702D0033C2230032060200CC
:1010D00000000000F041880001428800B04180001B
:1010E000C14180006E05020000000000800278000F
:1010F0000F22AF00FEFF3700B404200084108800E8
:101100000F22AF00FEFF3700440420008410880047
:101110000F22AF00FEFF3700D403200084108800A8
:1011200005007800040020004E02020000000000CC
:101130005100200001007800900102000000000032
:101140008100E800811F78000F22AF00FEFF37000A
:1011500080108800CF007800100120000008E60011
:10116000F4FF37006483200024458800E405020072
:1011700000000000B0418000C1418000D2CC2C00B2
:10118000C3DC23003206020000000000B0418800EA
:10119000C14188000100200001007800B001020078
:1011A000000000008100E800811F78000F22AF00DE
:1011B000FEFF370080108800CF007800700020000C
:1011C0000008E600F4FF37005042800004002000D1
:1011D0004E02020000000000A10020000100780083
:1011E000B0010200000000008100E800811F7800CB
:1011F0000F22AF00FEFF370080108800CF0078007C
:10120000400120000008E600F4FF3700A48420001D
:101210003445880028050200000000004228EF0045
:10122000D2A2A900D6A2AA008520A900A001200070
:101230000C0009004F1078004F0078003600F900CC
:101240004200F900004006000000E0004220AF002C
:10125000060037002133090000000000FF3F0900AD
:10126000000000000000E900F7FF37000000060062
:101270004200F8003600F800801F780020002000AF
:101280000C000900B01F78004208E20002003200A2
:101290000040EB000100370010C0B30042E8B70087
:1012A0004368EF00401F20002409020000000000F6
:1012B0008400A900A00120000C0009004F10780054
:1012C0004F0078003600F9004200F90000400600A7
:1012D000E4002000240C880064002000540C8800E6
:1012E000E4002000840C8800E4002000B40C880096
:1012F0001021EF00B45D20006408880004002A007B
:10130000840888001221EF00B45D20007408880072
:1013100004002A00940888008021EF008621EF0055
:101320008C21EF009221EF0000000600851F78005D
:1013300024448000640242000400780080027800A7
:10134000800AEB00C922AF00950AE800244480001F
:10135000660242000400780080027800800AEB00F8
:10136000C8E2AF00950AE800244480006802420009
:101370000400780080027800800AEB00C8A2AF0069
:10138000950AE800244480006A02420004007800C4
:1013900080027800800AEB00C862AF00950AE8007E
:1013A000244480006C02420004007800800278002F
:1013B000800AEB00C822AF00950AE80024448000B0
:1013C0006E0242000400780080027800800AEB0080
:1013D000C802AF00950AE800244480007002420071
:1013E0000400780080027800800AEB00C842AF0059
:1013F000950AE8002444800072024200040078004C
:1014000080027800800AEB00C882AF00950AE800ED
:1014100024448000740242000400780080027800B6
:10142000800AEB00C8C2AF00950AE800244480009F
:10143000760242000400780080027800800AEB0007
:10144000C902AF00950AE8002444800078024200F7
:101450000400780080027800800AEB00C942AF00E7
:10146000950AE800CF02780000000600851F78008A
:101470008C28EF008E28EF009028EF008608F800F7
:101480008C08F90060448000444480000020E100A2
:1014900012003500644480006220B80024448000BB
:1014A00004004000900278000500E00009003A00C6
:1014B00064448000610242008402780005027800E2
:1014C0006220B8009028B400744480006102420099
:1014D000744488008C28EC00EAFF37008E08E20094
:1014E000070032005544800084448000734480002B
:1014F000110009000302D800800A780003003700B9
:1015000055448000F4FF2F0084029800CF02780039
:1015100000000600244480007020E10007003D0028
:10152000244480006020E10004003500D862A90056
:10153000DC62A900D882A900DC82A80024448000D3
:101540007020E10004003400D862A900DC62A80029
:10155000D882A900DC82A900244480007020E10028
:1015600004003A00D862A900DC62A900D882A90070
:10157000DC82A90000000600851F7800C50020005D
:1015800003000900B51F78008004EB000800280064
:101590004300AF0083016C00010578008A85690073
:1015A0000103780083037800030678004220A90035
:1015B0004200A9000683D2000680FD00F60FB200AB
:1015C0000600E000A10032004220A9004200A9006C
:1015D0008783D2000780FD00F70FB2000700E0000C
:1015E0009F0032004220A9004200A9000638E10015
:1015F0009C003200A30033000900A1000910A000E4
:101600000684530007037800F10FB2000170A000B8
:10161000F30FB2000370A000870220000838E10039
:10162000110033004220A9004200A9008180D300AC
:101630000080D3000804E900FAFF3A000D003700EB
:10164000870220000838E100090033004220A90089
:101650004200A9008381D3000281D3000804E9007D
:10166000FAFF3A000F00370002007800830078008C
:10167000430037000BF0A600110037000940A70017
:101680008C0578000000EA000200320081C0EA0008
:10169000010037008100EA000940A7002B00370055
:1016A000070037000BF0A600050037000201EA0032
:1016B0000200320083C1EA00010037008301EA0022
:1016C000F50FB2004220A9004200A900020040002C
:1016D00083C048004200AF000930A0000900A70005
:1016E000090037000910A700010037000B00370080
:1016F0000BF0A700150037000930A70029003700BC
:101700000960A0001E0037000BF0A7000F00370093
:101710000930A70023003700190037000920A10075
:101720000BF0A700040037008A0578000930A700F5
:101730001C003700360037000940A00001C8B20085
:101740000170A700CDFF37008A057800F10FB200C5
:10175000810370000A0032000170A7000800370002
:101760004220A9004200A9000080D2008180D2005E
:101770000603E9004220AF0031003700F6FF3700D2
:101780000900A7008A0578000910A7008C057800D9
:101790000950A6001A0037000AF0A7000080A00038
:1017A0001B0037004200A80081C0D3000080D30096
:1017B0004200AF000950A0000603E80020003200FC
:1017C0000950A600080037000000E80006003A00B3
:1017D0008140E80004003A0081C0D3000080D300BB
:1017E0000603E800160032000900A7008A05780009
:1017F0000910A7008C0578004220AF0010003700C8
:101800000960A7008A0578000970A7008C05780098
:1018100001017000230032000170A1000680FD006C
:101820004220A9004200A9000683D30081006B007A
:1018300001F0A0000BF0A60001F0A1001900370094
:101840000000200001002000160037000AF0A70069
:1018500083016C00020078008300780011003700DB
:1018600010003700F30FB2000370A000F10FB200B8
:101870000170A0000BF0A7000370A1000920A000D8
:1018800088FF370007045300F10FB2000170A00079
:10189000F30FB2000370A0000910A1000900A0001E
:1018A00067FF37002501200003000900CF127800F0
:1018B000CF027800000006000000E0004220AF00E8
:1018C0000400370016000900000000000000E900D5
:1018D000F9FF37000000060081E0A800040028009E
:1018E000641088000440200074108800F400200078
:1018F000A410880044382000044188003228EF00FA
:101900003428EF003628EF00143E2400C44188003C
:101910003A28EF0064292400E44188003E28EF00C3
:101920004028EF004228EF004428EF004628EF004F
:101930000420230044428800C45D200054428800F3
:10194000A8A2EF000FF82000F0FF200020A0B700B1
:10195000000000000028EF007E28EF00B45D2000AA
:101960002444880068090200000000008C00A800E0
:101970008200A9004200F80042E0EF00A828EF0032
:10198000AA28EF00E0010200000000004200F90078
:101990004208E20009003A00D862A900DC62AA000D
:1019A0004200F80042E0EF00A00F200024090200EE
:1019B000000000004200F900F5FF37004200F80087
:1019C00042E0EF00007D200024090200000000003A
:1019D0004200F9004208E200870032002480200023
:1019E0002444880096090200000000002400200022
:1019F00034448800C400200044448800248020002F
:101A0000244488008482200054448800360A02005E
:101A10000000000044418000F3FF2F000418E100A3
:101A200002003A002608F8002808F9002808F80003
:101A30008408F9008A0A0200000000002808F80063
:101A40002608F900040120004341800003005200F1
:101A500060418800644180005341800003005200CF
:101A60007041880064418000A3002000110009003B
:101A70000302D8004200F80042E0EF009A0502009D
:101A8000000000004200F9004300A90000017800B6
:101A90008101780090418000A1418000BC0A0200D1
:101AA0000000000090418800A1418800654180004D
:101AB0004200F80042E0EF00050078009A050200BD
:101AC000000000004200F9004200F80042E0EF0090
:101AD000D2418000E3418000320602000000000095
:101AE0004200F9008002780001037800774180000D
:101AF0004200F80042E0EF00070078009A0502007B
:101B0000000000004200F9004200F80042E0EF004F
:101B1000B2418000C3418000320602000000000094
:101B20004200F9004300A90000017800810178001B
:101B30000500780086007800BC0A02000000000062
:101B400080027800010378004200F80042E0EF00D4
:101B500090418000A1418000F2418000034280005A
:101B600032060200000000004200F9004300A90014
:101B70000001780081017800050078008600780077
:101B8000BC0A0200000000004200F80042E0EF0042
:101B90006E050200000000004200F900804188004C
:101BA0002C08F8002A08F9000441800083418000D5
:101BB0000300520010418800004180003008B4004A
:101BC000204188004200F80042E0EF002208F800BF
:101BD000A808F9002408F800AA08F900E0010200AA
:101BE000000000004200F900404280005C0C02004E
:101BF0000000000077FF37005EFF37000040FE0066
:0200000401F009
:1000000003C700003F000000338700000F310000ED
:0C0010000F3300000700000003C00000D8
:00000001FF
;DSPIC30F5015
;CRC=B693  CREATED="13-Nov-15 10:13"
